:020000040800F2
:10000000D80900209D010008B91600082D16000827
:10001000B516000855070008D519000800000000B3
:10002000000000000000000000000000C9170008E8
:100030005907000800000000BD160008CD17000891
:10004000B7010008B7010008B7010008B7010008B0
:10005000B7010008B7010008B7010008B7010008A0
:10006000B7010008B7010008B7010008B701000890
:10007000B7010008B7010008B7010008B701000880
:10008000B7010008B7010008B7010008B701000870
:10009000B7010008B7010008B7010008B701000860
:1000A000B7010008B7010008B7010008B701000850
:1000B000B7010008B7010008B7010008B701000840
:1000C000B7010008B7010008B7010008B701000830
:1000D000B7010008B7010008B7010008B701000820
:1000E000B7010008B7010008B7010008B701000810
:1000F000B7010008B7010008B7010008B701000800
:10010000B7010008B7010008B7010008B7010008EF
:10011000B7010008B7010008B7010008B7010008DF
:10012000B7010008B7010008B7010008B7010008CF
:10013000B7010008B7010008B7010008B7010008BF
:10014000B7010008B7010008B7010008B7010008AF
:10015000B7010008B7010008B7010008B70100089F
:10016000B7010008B7010008B7010008B70100088F
:10017000B7010008B7010008B7010008000000003F
:10018000B7010008B7010008DFF80CD000F05AFAF8
:100190000048004729230008D80900200648804766
:1001A00006480047FEE7FEE7FEE7FEE7FEE7FEE75C
:1001B000FEE7FEE7FEE7FEE7C11900088901000837
:1001C0002DE9F05F0546002092469B46884606468C
:1001D000814640241BE0284641464746224600F01F
:1001E00069F853465A46C01A914110D31146184631
:1001F000224600F050F82D1A67EB01084F462246C0
:100200000120002100F047F817EB00094E41201EA5
:10021000A4F10104DFDC484631462A464346BDE8E6
:10022000F09F40EA01039B0703D009E008C9121FB1
:1002300008C0042AFAD203E011F8013B00F8013BA0
:10024000521EF9D27047D2B201E000F8012B491ECC
:10025000FBD270470022F6E710B513460A46044663
:100260001946FFF7F0FF204610BD30B50B4601469A
:1002700000202022012409E021FA02F59D4205D345
:1002800003FA02F5491B04FA02F52844151EA2F1EF
:100290000102F1DC30BD202A04DB203A00FA02F131
:1002A000002070479140C2F1200320FA03F3194364
:1002B00090407047202A04DB203A21FA02F0002106
:1002C000704721FA02F3D040C2F120029140084366
:1002D000194670472DE9FE4F804681EA0300C00FA2
:1002E0000C46009021F0004123F00045B8EB0200DD
:1002F000A94105D24046214690461C460B4602467F
:1003000023F00040104347D0270DC7F30A00C3F382
:100310000A510290401A019040286BDAC3F313008F
:1003200040F4801B0098924620B10023D2EB030AD0
:1003300063EB0B0B01985946C0F140025046FFF7A2
:10034000AAFF06460D4650465946019A00F092F91A
:1003500010EB08006141002487EA115284EAE77338
:100360001A4340D0009A62B3019A012A4FEA075219
:1003700015DC001B61EB02014FF0004202EA07525C
:10038000CDE90042001C41F5801132462B4600F0B9
:1003900092F903B0BDE8F08F40462146F9E7001B13
:1003A00061EB0201001C41F5801300185B4120182D
:1003B000A2F5001747EB030140EAD570B6196D416D
:1003C00011E06D084FEA360645EAC0754FEA07525C
:1003D000001B61EB0201001C41F5801149084FEA46
:1003E00030000019514132462B4603B0BDE8F04FB2
:1003F00000F052B90098012240000023D0EB020225
:1004000063EBE073009821464FEAE074B8EB00001C
:1004100061EB0401E9E783F000435BE781F0004111
:1004200058E72DE9FE4F81EA030404F0004421F06F
:10043000004100944FF0000B23F0004350EA010408
:100440005ED052EA03045BD0C3F30A54C1F30A55E9
:100450002C44A4F2F3340194A0FB0254C1F3130121
:1004600041F48011C3F3130343F4801301FB0244EE
:1004700000FB034E840A970A44EA815447EA8357F3
:10048000A4FB076802958D0A05FB07854FEA932CAC
:1004900004FB0C542705029D4FEA065847EA16371D
:1004A000B5EB08056EEB070C870E920E47EA811735
:1004B00042EA8312A7FB0201B6EB0B0164EB0004D6
:1004C0002B0D43EA0C335E1844EB1C50DA465146C0
:1004D000E7FB0201C5F313044FEA0B3343EA14535D
:1004E0004FEA0432019C43EA0603A4F10C0402948F
:1004F000009CCDE900B400F0DEF803B0BDE8F08F59
:1005000000200146F9E72DE9F04D81EA030404F0EB
:10051000004B21F0004514464FF0000A23F0004143
:1005200050EA050220D054EA01021DD0C5F30A5753
:100530000246C5F31303C1F31300C1F30A5640F496
:10054000801543F48013A7EB0608101BD64608F26B
:10055000FD3873EB050002D308F1010801E09218A1
:100560005B41B8F1000F03DA00200146BDE8F08DD1
:1005700000204FF48011064684460EE0171B73EBF3
:10058000050705D3121B63EB050306434CEA010C78
:1005900049084FEA300092185B4150EA0107EDD15B
:1005A00052EA030012D082EA040083EA05010843FC
:1005B00005D0101BAB4106D20122002306E0002229
:1005C0004FF0004302E06FF0010253101AEB0600F7
:1005D0004CEB085110EB0A0041EB0B01BDE8F04D6C
:1005E00000F05AB8C1F30A52C1F3130140F2FF33CD
:1005F00041F480119A4202DA00200146704740F22D
:1006000033439A42A2F2334202DC5242FFF752BE17
:10061000FFF741BE30B5041E71F1000404DB4FF05A
:100620000044404264EB0101141E73F1000405DB39
:100630001C464FF00043524263EB0403994208BF4B
:10064000904230BD1CB5094800900948019005460C
:10065000009C06E0E06840F0010394E8070098473A
:100660001034AC42F6D3FFF793FD00007C2E000857
:100670009C2E0008202A06DBCB17203A41FA02F014
:1006800043EAE07306E041FA02F3D040C2F12002EF
:10069000914008431946704710B5141E73F10004C9
:1006A00008DA401C41F1000192185B411A4301D164
:1006B00020F0010010BD2DE9F04D92469B4611B18E
:1006C000B1FA81F202E0B0FA80F220329046FFF7F0
:1006D000E2FD04460F4640EA0A0041EA0B01534698
:1006E0005A46084313D0114653EA010019D0C8F105
:1006F00040025046FFF7DEFD05460E46504659467D
:100700004246FFF7C8FD084305D0012004E020461B
:100710003946BDE8F08D0020054346EAE0762C43DB
:1007200037430A986305E40AA0EB08000022FD0A9B
:1007300044EA47540A3002D500200146E9E70105A2
:1007400010196941DDE9084500196941BDE8F04D1E
:10075000A2E70000FFE7FEE77047000072B6FFE780
:10076000FEE700008EB00D900C9100200A900990D9
:1007700008900B90FFE70B980F2800F2CC81FFE761
:100780000B99012088400A900C9800680A9908404B
:10079000099009980A99884240F0B881FFE70C98BF
:1007A000406800F00300012807D0FFE70C9840687C
:1007B00000F0030002282FD1FFE70D988068089011
:1007C0000B984100032000FA01F108988843089033
:1007D0000C98C0680B99490000FA01F10898084389
:1007E000089008980D9988600D98406808900B99BA
:1007F000012000FA01F10898884308900C9840689D
:10080000C0F300100B9900FA01F108980843089012
:1008100008980D994860FFE70C98406800F00300C5
:10082000032818D0FFE70D98C06808900B98410086
:10083000032000FA01F10898884308900C9880681A
:100840000B99490000FA01F10898084308900898AC
:100850000D99C860FFE70C98406800F0030002287B
:1008600026D1FFE70D980B996FF0030202EA5101C0
:100870000844006A08900B9800F0070081000F20E0
:1008800000FA01F10898884308900C9800690B99C8
:1008900001F00701890000FA01F108980843089067
:1008A00008980D990B9B02EA530211440862FFE776
:1008B0000D98006808900B984100032000FA01F1A0
:1008C0000898884308900C98406800F003000B9942
:1008D000490000FA01F108980843089008980D991A
:1008E00008600C9880798007002800F00E81FFE7EF
:1008F000FFE70020079043F64400C4F202000168BD
:1009000041F480410160006800F48040079007983E
:10091000FFE70B9820F0030043F60801C4F2010141
:10092000405808900B9800F0030081000F2000FA57
:1009300001F10898884308900D980021C4F2020143
:10094000884203D1FFE7002006905EE00D9840F258
:100950000041C4F20201884203D1FFE70120059063
:1009600050E00D9840F60001C4F20201884203D124
:10097000FFE70220049042E00D9840F60041C4F2E7
:100980000201884203D1FFE70320039034E00D9871
:1009900041F20001C4F20201884203D1FFE70420C2
:1009A000029026E00D9841F20041C4F20201884213
:1009B00003D1FFE70520019018E00D9841F60001F2
:1009C000C4F20201884203D1FFE7062000900AE04A
:1009D0000D9941F60042C4F202020820914208BF7C
:1009E00007200090FFE700980190FFE70198029030
:1009F000FFE702980390FFE703980490FFE704984D
:100A00000590FFE705980690FFE70698C0B20B999E
:100A100001F00301890000FA01F1089808430890E9
:100A200008980B9921F0030143F60802C4F2010271
:100A3000885043F60840C4F2010000680890099904
:100A40000898884308900C988079C006002805D53E
:100A5000FFE70999089808430890FFE7089843F6CC
:100A60000841C4F20101086043F60C40C4F20100E1
:100A70000068089009990898884308900C98807934
:100A80008006002805D5FFE70999089808430890D3
:100A9000FFE7089843F60C41C4F20101086043F6F1
:100AA0000440C4F20100006808900999089888433E
:100AB00008900C9880798007002805D5FFE70999F0
:100AC000089808430890FFE7089843F60441C4F2E9
:100AD0000101086043F60040C4F20100006808907C
:100AE00009990898884308900C988079C00728B124
:100AF000FFE70999089808430890FFE7089843F62C
:100B00000041C4F201010860FFE7FFE7FFE70B982F
:100B100001300B902FE60EB07047000083B00290BA
:100B2000ADF80610029840690090009ABDF80600E2
:100B300002EA0001904340EA01400299886103B053
:100B40007047000082B00190ADF802108DF80120CE
:100B50009DF8010028B1FFE7BDF802000199886106
:100B600005E0BDF80200000401998861FFE702B0CA
:100B70007047000080B501F01FFC80BD80B543F6D2
:100B80000041C4F20201086840F40070086008687F
:100B900040F480600860086840F4807008600320BA
:100BA00000F036F80F2000F005F800F00BF80020F8
:100BB00080BD000080B582B0019001F001FC0020F2
:100BC00002B080BD82B0FFE70020019043F64400F0
:100BD000C4F20200016841F480410160006800F441
:100BE000804001900198FFE7FFE70020009043F666
:100BF0004000C4F20200016841F0805101600068C9
:100C000000F0805000900098FFE702B070470000AD
:100C100080B582B00190019801F008F802B080BD63
:100C200080B584B002900191029820B9FFE70120BD
:100C30008DF80F0021E1019843F60041C4F2020152
:100C4000096801F00701884212D9FFE7019943F6CC
:100C50000040C4F202000170006800F00700019932
:100C6000884204D0FFE701208DF80F0005E1FFE77F
:100C700002980078800700282AD5FFE702980078BC
:100C80004007002809D5FFE743F60801C4F2020136
:100C9000086840F4E0500860FFE702980078000719
:100CA000002809D5FFE743F60801C4F202010868ED
:100CB00040F460400860FFE743F60801C4F2020117
:100CC000086820F0F000029A926810430860FFE77D
:100CD00002980078C00700286ED0FFE702984068AD
:100CE000012811D1FFE743F60000C4F202000068BA
:100CF00000F400310020B0EB514F04D1FFE7012098
:100D00008DF80F00B9E02CE002984068022805D069
:100D1000FFE702984068032811D1FFE743F600007F
:100D2000C4F20200006800F000710020B0EB516FC7
:100D300004D1FFE701208DF80F009EE010E043F69C
:100D40000000C4F20200006800F002010020B0EBD5
:100D5000510F04D1FFE701208DF80F008DE0FFE770
:100D6000FFE743F60801C4F20201086820F003001F
:100D7000029A526810430860FFF7FCFE0090FFE7FC
:100D800043F60800C4F20200006800F00C0002996B
:100D90004968B0EB810F0ED0FFE7FFF7EBFE00993B
:100DA000401A41F28931884204D3FFE703208DF8CD
:100DB0000F0062E0E4E7FFE7019843F60041C4F268
:100DC0000201096801F00701884212D2FFE7019988
:100DD00043F60040C4F202000170006800F0070012
:100DE0000199884204D0FFE701208DF80F0044E00C
:100DF000FFE702980078400700280CD5FFE743F68C
:100E00000801C4F20201086820F4E050029AD26896
:100E100010430860FFE702980078000700280DD50E
:100E2000FFE743F60801C4F20201086820F46040BD
:100E3000029A126940EAC2000860FFE700F022F857
:100E400043F60801C4F202010968C9B20A0942F670
:100E50001851C0F60001895CC84040F20001C2F29E
:100E60000001086040F21000C2F200000068FFF7C5
:100E7000A1FE00208DF80F00FFE79DF80F0004B0E1
:100E800080BD000080B586B00020059004900390DE
:100E9000029043F60800C4F20200006800F00C0063
:100EA0000146019140B1FFE7019804280AD0FFE70D
:100EB000019808280CD04FE042F20040C0F2F40044
:100EC00002904FE041F20020C0F27A00029049E027
:100ED00043F60400C4F20200016801F03F010591ED
:100EE00000684002002813D5FFE743F60400C4F26F
:100EF00002000068C0F3881041F20021C0F27A01BC
:100F0000A0FB0101059A0023FFF75AF9049012E0B3
:100F100043F60400C4F202000068C0F3881042F2F5
:100F20000041C0F2F401A0FB0101059A0023FFF784
:100F300047F90490FFE743F60400C4F2020000689A
:100F400000F44031022000EBD13003900498039963
:100F5000B0FBF1F0029005E042F20040C0F2F40074
:100F60000290FFE7029806B080BD000080B586B011
:100F70000490049820B9FFE701208DF8170050E392
:100F800004980078C007002800F0A580FFE743F62A
:100F90000800C4F20200006800F00C00042813D01E
:100FA000FFE743F60800C4F20200006800F00C00FE
:100FB00008281ED1FFE743F60400C4F202000068CF
:100FC0004002002815D5FFE743F60000C4F20200F6
:100FD000006800F400310020B0EB514F08D0FFE76B
:100FE0000498406820B9FFE701208DF8170018E346
:100FF00070E0FFE704984068B0F5803F09D1FFE753
:1010000043F60001C4F20201086840F48030086031
:1010100020E004984068B0F5A02F0DD1FFE743F61B
:101020000001C4F20201086840F4802008600868EA
:1010300040F4803008600CE043F60001C4F2020185
:10104000086820F480300860086820F48020086078
:10105000FFE7FFE7FFE704984068E8B1FFE7FFF725
:1010600089FD0390FFE743F60000C4F20200006828
:1010700000F400310020B0EB514F0CD1FFE7FFF737
:1010800079FD0399401A652804D3FFE703208DF802
:101090001700C6E2E7E71CE0FFF76CFD0390FFE7EF
:1010A00043F60000C4F20200006800F400310020A2
:1010B000B0EB514F0CD0FFE7FFF75CFD0399401AEE
:1010C000652804D3FFE703208DF81700A9E2E7E7BE
:1010D000FFE7FFE7FFE7049800788007002840F16A
:1010E0009680FFE743F60800C4F20200006810F0A3
:1010F0000C0F13D0FFE743F60800C4F202000068AB
:1011000000F00C0008282CD1FFE743F60400C4F2DD
:10111000020000684002002823D4FFE743F60000E5
:10112000C4F20200006800F002010020B0EB510F91
:1011300009D0FFE70498C068012804D0FFE7012028
:101140008DF817006DE243F60001C4F20201086851
:1011500020F0F800049A126940EAC2000860FFE734
:1011600054E00498C06870B3FFE70021C4F247213F
:1011700001200860FFF7FEFC0390FFE743F6000044
:10118000C4F20200006800F002010020B0EB510F31
:101190000CD1FFE7FFF7EEFC0399401A032804D3B4
:1011A000FFE703208DF817003BE2E7E743F6000175
:1011B000C4F20201086820F0F800049A126940EABB
:1011C000C200086021E00021C4F24721002008602D
:1011D000FFF7D0FC0390FFE743F60000C4F20200E3
:1011E000006800F002010020B0EB510F0CD0FFE7C7
:1011F000FFF7C0FC0399401A032804D3FFE703203C
:101200008DF817000DE2E7E7FFE7FFE7FFE7049837
:101210000078000700284BD5FFE70498406918B311
:10122000FFE740F68061C4F2472101200860FFF724
:10123000A1FC0390FFE743F67400C4F202000068CB
:1012400000F002010020B0EB510F0CD1FFE7FFF7D7
:1012500091FC0399401A032804D3FFE703208DF87B
:101260001700DEE1E7E722E040F68061C4F24721A3
:1012700000200860FFF77EFC0390FFE743F6740050
:10128000C4F20200006800F002010020B0EB510F30
:101290000CD0FFE7FFF76EFC0399401A032804D334
:1012A000FFE703208DF81700BBE1E7E7FFE7FFE763
:1012B000049800784007002840F1CE80FFE7002026
:1012C0008DF8070043F64000C4F202000068C00039
:1012D000002815D4FFE7FFE70020009043F6400008
:1012E000C4F20200016841F080510160006800F022
:1012F000805000900098FFE701208DF80700FFE77D
:1013000047F20000C4F200000068C005002822D4A3
:10131000FFE747F20001C4F20001086840F4807062
:101320000860FFF727FC0390FFE747F20000C4F2D4
:1013300000000068C00500280CD4FFE7FFF71AFC86
:101340000399401A032804D3FFE703208DF8170000
:1013500067E1EAE7FFE7FFE704988068012809D121
:10136000FFE743F67001C4F20201086840F0010093
:1013700008601FE00498806805280DD1FFE743F658
:101380007001C4F20201086840F0040008600868B7
:1013900040F0010008600CE043F67001C4F2020165
:1013A000086820F001000860086820F00400086068
:1013B000FFE7FFE7FFE704988068F8B1FFE7FFF772
:1013C000D9FB0390FFE743F67000C4F20200006807
:1013D00000F002010020B0EB510F0ED1FFE7FFF744
:1013E000C9FB0399401A41F28931884204D3FFE7CF
:1013F00003208DF8170014E1E5E71EE0FFF7BAFBC4
:101400000390FFE743F67000C4F20200006800F0AA
:1014100002010020B0EB510F0ED0FFE7FFF7AAFB4F
:101420000399401A41F28931884204D3FFE703202F
:101430008DF81700F5E0E5E7FFE79DF807000128C4
:1014400009D1FFE743F64001C4F20201086820F029
:1014500080500860FFE7FFE704988069002800F0EB
:10146000DC80FFE743F60800C4F20200006800F0E9
:101470000C00082800F08580FFE7049880690228A6
:101480005CD1FFE76021C4F2472100200860FFF72C
:1014900071FB0390FFE743F60000C4F2020000680E
:1014A00000F000710020B0EB516F0CD0FFE7FFF7A8
:1014B00061FB0399401A032804D3FFE703208DF84A
:1014C0001700AEE0E7E70499C869D1F820C04B6A7D
:1014D0008A6A40EA0C0040EA8310D2034FF6FF7399
:1014E0009A43A2F580321043C96A40EA016043F68C
:1014F0000401C4F2020108606021C4F24721012006
:101500000860FFF737FB0390FFE743F60000C4F2E3
:101510000200006800F000710020B0EB516F0CD1A8
:10152000FFE7FFF727FB0399401A032804D3FFE7DF
:1015300003208DF8170074E0E7E721E06021C4F292
:10154000472100200860FFF715FB0390FFE743F6F3
:101550000000C4F20200006800F000710020B0EB4F
:10156000516F0CD0FFE7FFF705FB0399401A0328E2
:1015700004D3FFE703208DF8170052E0E7E7FFE709
:101580004AE004988069012804D1FFE701208DF822
:10159000170046E043F60400C4F20200006802901F
:1015A00004988069012831D0FFE7029800F4800098
:1015B0000499C969884229D1FFE7029800F03F00E9
:1015C0000499096A884221D1FFE7029847F6C07161
:1015D00008400499496AB0EB811F17D1FFE70298D0
:1015E00000F440300499896AC9034FF6FF729143B1
:1015F000A1F58031884209D1FFE7029800F07060C0
:101600000499C96AB0EB016F04D0FFE701208DF89F
:10161000170006E0FFE7FFE7FFE700208DF817005F
:10162000FFE79DF8170006B080BD0000FFE7FEE76A
:1016300080B58AB000200990089007900690059028
:10164000FFE70020049043F63000C4F20200016876
:1016500041F010010160006800F01000049004984F
:10166000FFE7FFE70020039043F63000C4F20200DA
:10167000016841F080010160006800F08000039083
:101680000398FFE741F20000C4F2020002904021FB
:10169000009100220192FFF755FA009A01990298F1
:1016A0000592012206920791089105A9FFF75AF8C1
:1016B0000AB080BDFFE7FEE7FFE7FEE770470000E6
:1016C00080B500F089F980BD80B586B005900491A1
:1016D0000392FFE740F21800C2F200000190019867
:1016E0000078532803D0FFE700F076F9FFE7FFE723
:1016F000EFF311804FF0200181F3118800900598DD
:101700000499039A00F008F80290009880F3118879
:10171000029806B080BD000080B58AB0099008919B
:10172000079208980490099800EB400140F21800D5
:10173000C2F2000000EBC10018300390039840692A
:10174000029040B1FFE70298012819D0FFE7029804
:1017500002282CD032E0039800F090F9059005980B
:101760000799884203D2FFE70020069007E0079818
:10177000069003980499079A00F012FAFFE720E018
:10178000039800F07BF9059005980799884203D2E9
:10179000FFE70598019002E007980190FFE70198A4
:1017A000069003980499069A00F0FAF909E0039864
:1017B0000499079A00F082F9069002E00020069052
:1017C000FFE706980AB080BD704700007047000030
:1017D00080B594B008A83021FEF73CFD00200790AA
:1017E0000690059004900390FFE70020029043F6D6
:1017F0004000C4F20200016841F0805101600068BD
:1018000000F0805002900298FFE7FFE7002001906F
:1018100047F20000C4F20000016841F48041016019
:10182000006800F4804001900198FFE701200890D3
:101830004FF48030099002200E904FF480010F91F8
:10184000082110914FF4A871119112900420139067
:1018500008A8FFF78BFB18B1FFE7FEF77FFFFFE754
:101860000F20039002200490002005904FF4A05018
:1018700006904FF48050079003A80521FFF7D0F998
:1018800018B1FFE7FEF76AFFFFE714B080BD000064
:1018900086B00021059104910220039002910190ED
:1018A00043F60800C4F20200006800F00C00059046
:1018B0000598009040B1FFE7009804280ED0FFE79C
:1018C0000098082814D059E040F20001C2F200014B
:1018D00042F20040C0F2F400086059E040F200011A
:1018E000C2F2000141F20020C0F27A0008604FE02D
:1018F00043F60400C4F202000168C1F38051029172
:10190000006800F03F000190029888B1FFE701995C
:1019100041F20020C0F27A00B0FBF1F043F604017E
:10192000C4F202010968C1F388114843049010E031
:10193000019942F20040C0F2F400B0FBF1F043F62E
:101940000401C4F202010968C1F3881148430490FC
:10195000FFE743F60400C4F20200006800F44031DF
:10196000022000EBD130039004980399B0FBF1F012
:1019700040F20001C2F20001086009E040F20001FB
:10198000C2F2000142F20040C0F2F4000860FFE73A
:1019900043F60800C4F202000068C0B2010942F632
:1019A0001850C0F60000405C0590059A40F2000116
:1019B000C2F200010868D040086006B0704700001D
:1019C0004EF68851CEF20001086840F470000860BD
:1019D00070470000FFE7FEE780B582B040F21800D4
:1019E000C2F2000001900198A821FEF733FC019992
:1019F0000320086101994861019842F6DC51C0F664
:101A000000018161019A40F2D000C2F20000D06171
:101A1000019A4FF480601062019A00209062019A4E
:101A20005062019AD062019A1166019A40F2C00197
:101A3000C2F200015166019A10219166019908676E
:101A40000199C86601994867BFF35F8F0090FFE76F
:101A500000980F280ED8FFE7009A42F62850C0F6EB
:101A60000000801AC07B01998854FFE7009801307C
:101A70000090EDE7BFF35F8F02B080BD84B00390AC
:101A80000398006902900398C06801900298019938
:101A9000884209D8FFE7039881680198C043084449
:101AA00002990844009005E002990198C043084457
:101AB0000090FFE7009804B07047000080B58AB03E
:101AC000099008910792002005900998C06803903A
:101AD000FFE709980069049004980399884206D9A1
:101AE000FFE704990398C0430844069008E009986A
:101AF00081680398049A801AC04308440690FFE75F
:101B0000069809998968039A891A884203D2FFE7DF
:101B10000698019005E0099880680399401A0190A1
:101B2000FFE70198069006980799884203D2FFE7DD
:101B30000698009002E007980090FFE70098069052
:101B40000998406803990844029002980899069AF7
:101B5000FEF767FB069905980844059006990898D2
:101B60000844089006990798401A07900699039828
:101B700008440390039809998968884203D1FFE7D4
:101B800000200390FFE7BFF35F8F03980999C860B7
:101B9000FFE7079800289CD1FFE705980AB080BDB1
:101BA00080B588B00790069105920798C0680390A9
:101BB000079880680399401A029002980599884214
:101BC00012D9FFE7079840680399084401900198EB
:101BD0000699059AFEF725FBBFF35F8F03980599D9
:101BE00008440799C8601FE002980490079840686D
:101BF00003990844019001980699049AFEF711FB95
:101C000005980299401A049007984068019001983D
:101C10000699029A1144049AFEF703FBBFF35F8F03
:101C200004980799C860FFE708B080BD83B00290B0
:101C3000029800F0070000904EF60C51CEF2000121
:101C40000868019001984FF6FF021040019001983A
:101C5000009A40EA02200022C0F2FA52104301909A
:101C60000198086003B0704780B5A6B000F0A2F8F4
:101C70002590259810B1FFE726B080BDFFE7FFE76C
:101C800042F63C50C0F6000042F69452C0F6000204
:101C9000032100F033FBFFE7FFE742F63C50C0F6BC
:101CA000000042F65252C0F60002022100F026FB6C
:101CB000FFE7FFE742F63C50C0F6000042F6B452A0
:101CC000C0F60002012100F019FBFFE7FFE742F632
:101CD0003C50C0F6000042F67452C0F600020421E7
:101CE00000F00CFBFFE7FFE700202490FFE72498BB
:101CF0000C282EDCFFE7249842F64451C0F6000180
:101D000001440291C0F10D00112803DBFFE7102010
:101D1000019004E02498C0F10D000190FFE70298C3
:101D2000019904AA802300F085F90390FFE742F6A9
:101D30003C50C0F6000042F6D952C0F60002042121
:101D400004AB00F0DBFAFFE7FFE7249810302490A3
:101D5000CDE7FFE741F20000C4F20200402100F0AD
:101D600077F84FF4FA7000F0F3FA88E780B500F0E6
:101D700051F8002180BD000080B5FFF789FD40F2D9
:101D80000000C2F200000068002180BD80B5FFF7AE
:101D9000F3FF4FF47A720023FEF712FA80BD0000C1
:101DA00080B500F03DF880BD80B500F009FB002053
:101DB00080BD000080B582B0002000F05BF800908C
:101DC000009818B1FFE70098019020E0012000F092
:101DD00051F80090009818B1FFE70098019016E0C4
:101DE000022000F047F80090009818B1FFE7009833
:101DF00001900CE0032000F03DF80090009818B12D
:101E0000FFE70098019002E000200190FFE70198B1
:101E100002B080BD41F20400CEF2000000687047BD
:101E20004EF6FC51CEF20001086840F08070086068
:101E300041F20401CEF200010020086041F20002EC
:101E4000CEF20002116841F00101116070470000FC
:101E500080B584B00390ADF80A1003980190BDF8E6
:101E60000A00ADF802000198BDF80210FEF756FE18
:101E700004B080BD80B586B08DF8170000200290B8
:101E800042F69C62C0F60002049242F6B461C0F6CB
:101E90000001891AC90803910190FFE7019803998D
:101EA000884216D2FFE70498019900EBC100009028
:101EB000009800799DF81710884205D1FFE7009837
:101EC000006880470290FFE7FFE70198013001902A
:101ED000E4E7029806B080BD80B540F20400C2F28B
:101EE000000000F001F880BD84B002900020019055
:101EF000FFE70198012816DCFFE7019940F2D04086
:101F0000C2F2000050F821000299884206D1FFE792
:101F1000029901200871002003902BE0FFE701984F
:101F200001300190E5E700200090FFE700980128CC
:101F30001CDCFFE7009940F2D040C2F2000050F8EC
:101F4000210070B9FFE70298009A40F2D041C2F236
:101F5000000141F82200029901200871002003903D
:101F600008E0FFE7009801300090DFE76FF01B000A
:101F70000390FFE7039804B07047000080B584B079
:101F80000390029101920299019A0020FFF79CFBB5
:101F9000019804B080BD000080B586B005908DF832
:101FA00013100392029300200190FFE7019801288B
:101FB0003DDCFFE7019940F2D040C2F2000050F84A
:101FC000210078B3FFE7019940F2D040C2F200004F
:101FD00050F82100007928B3FFE7019940F2D04082
:101FE000C2F2000050F821008068D8B1FFE79DF8E8
:101FF0001300019A40F2D041C2F2000151F82210C0
:10200000497988420DDCFFE7019940F2D040C2F2E5
:10201000000050F82100836805980399029A9847B8
:10202000FFE7FFE7FFE7019801300190BEE706B048
:1020300080BD000080B58CB00B900A910992089386
:102040000998079000200590FFE705980A998842B3
:102050001EDAFFE707980899099A121A11440B9A99
:10206000059BD35C42F6EC52C0F6000200F0ACF9DE
:1020700006900698B0F1FF3F01DCFFE708E0069903
:10208000079808440790FFE7059801300590DCE7C2
:102090000A980490FFE704980F281BDCFFE70798D5
:1020A0000899099A121A114442F6E852C0F6000241
:1020B00000F08AF906900698B0F1FF3F01DCFFE7D7
:1020C00008E00699079808440790FFE70498013054
:1020D0000490E0E707980899099A121A114442F609
:1020E000F252C0F6000200F06FF90690069801283F
:1020F00005DBFFE70699079808440790FFE70020F3
:102100000390FFE703980A99884234DAFFE70B98B7
:102110000399405C20280BDBFFE70B980399405C98
:102120007E2805DCFFE70B980399405C019002E0F4
:102130002E200190FFE701988DF80B000798089971
:10214000099A121A11449DF80B3042F6F652C0F665
:10215000000200F039F906900698B0F1FF3F01DC6B
:10216000FFE708E00699079808440790FFE70398FF
:1021700001300390C6E707980999401A0CB080BD5A
:1021800083B08DF807009DF80700013801460091E3
:1021900004281ED80099DFE801F003091B0F150081
:1021A00042F65560C0F60000029018E042F63E602C
:1021B000C0F60000029012E042F62760C0F6000070
:1021C00002900CE042F6F950C0F60000029006E0E2
:1021D000FFE742F61060C0F600000290FFE70298A9
:1021E00003B0704780B588B0079306908DF817103C
:1021F0000492002003900290069888B3FFE70698A7
:10220000006803909DF8170006990979884201DD5E
:10221000FFE770E09DF8170008B3FFE79DF817008F
:10222000FFF7AEFF02460698036840F2D840C2F2BC
:1022300000004FF4807100F0C7F800900098B0F1F2
:10224000FF3F01DCFFE756E00098B0F5807F03D345
:10225000FFE7FF200090FFE700980290FFE7FFE70D
:10226000029940F2D840C2F200000844C1F58071E2
:10227000049A079B00F0C2F801900198B0F1FF3F6B
:1022800001DCFFE737E001990298084402900298C8
:10229000B0F5807F03D3FFE7FF200290FFE70299AC
:1022A00040F2D840C2F200000844C1F5807142F605
:1022B000D952C0F6000242F6E553C0F6000300F022
:1022C00083F801460298084402900298B0F5807F96
:1022D00003D3FFE7FF200290FFE7029940F2D842C4
:1022E000C2F200020020505403989DF81710029B80
:1022F000FFF752FEFFE708B080BD000081B080B557
:1023000085B0079304908DF80F10029207A80190F2
:1023100004989DF80F10029A019BFFF763FF05B028
:10232000BDE8804001B0704780B582B000200190C8
:10233000FEF724FCFFF74CFAFFF77AF9FFF794FC5D
:10234000FFE7FEE780B5FFF7BBF9002080BD000086
:1023500080B582B0019001984FF47A71484300F043
:1023600003F802B080BD000080B584B00390FFF791
:10237000FDFC0290039840F20001C2F200010968DE
:102380004DF68362C4F21B32A1FB0221890C484343
:102390000190FFE7FFF7EAFC009008460099029AD7
:1023A000891A60F10000019A891A70F1000001D2C7
:1023B000FFE7EFE704B080BD80B5FFF7E7FC80BD25
:1023C00080B5FFF7EDFC80BD0FB47CB50C0009AD06
:1023D00001D0611E00E00021CDE90001064B6A46F4
:1023E0002946089800F0F6F8002C02D0009A002147
:1023F00011707CBC5DF814FB032D00087CB50C004B
:102400001D461646014601D0601E00E00020CDE9C1
:102410000010064B6A462946304600F0DBF8002CD7
:1024200002D0009A002111707CBD0000032D00082D
:1024300002E008C8121F08C1002AFAD1704770478D
:10244000002001E001C1121F002AFBD170470000EB
:102450002DE9FF5F82B00021DDE90430020DDDF8D7
:1024600040B0034318D044F61050A2F2FF3242436A
:102470001514119801281FD0A5EB0B00401C5FEA32
:10248000000A4FF000064E4FDFF83891B046504634
:1024900015D5CAF1000413E0119801244AA30128BC
:1024A00001D16FEA0B010298119AC0E90031C0E92D
:1024B000024206B0BDE8F09FCBF10000DFE7044622
:1024C0000021404A491842EB0450CDE9001012E0C7
:1024D000E00707D032463B4640464946FDF7A1FF9C
:1024E0008046894632463B4610461946FDF799FF1D
:1024F00006460F466410002CEAD1DDE90401DDE94F
:102500000023BAF1000F06DAFDF78BFF42464B4677
:10251000FDF787FF05E0FDF7F6FF42464B46FDF766
:10252000F2FF04460E460022284BFEF773F803D84C
:102530004FF0FF30014607E00022254B2046314690
:10254000FDF7C8FEFEF74EF8102409E0002C0ADB68
:102550000A220023FDF734FE039B30321A55641E15
:1025600050EA0102F2D1641C039AC4F1110314442D
:10257000119A012A03D0012208430DD10AE0084331
:1025800004D000204FF0110B119072E7A3EB0B0564
:102590006D1E0DE05B4504DD4FF0000205F1010505
:1025A00004E003DA4FF00002A5F10105002AECD0A7
:1025B00002981199C0E90231C0E9004579E70000AD
:1025C000000014400000F03F300000000000F04325
:1025D0000000E03F2DE9FF4F95B09B468946064637
:1025E00000250FE2252877D100242746F84A01214B
:1025F000059400E0044316F8013F203B01FA03F084
:102600001042F7D130782A2811D06FF02F0330789C
:10261000A0F13002092A16D8059A44F0020402EB10
:10262000820203EB42021044761C0590EFE759F852
:10263000042B0592002A03DA504244F4005405901A
:1026400044F00204761C30782E2816D116F8010FBB
:1026500044F004042A280DD06FF02F023078A0F146
:102660003003092B09D807EB870302EB4303C71894
:10267000761CF3E759F8047B761C30786C280FD071
:1026800006DC4C2817D068280DD06A2814D104E045
:10269000742810D07A280FD10DE044F400140AE019
:1026A00044F4801401E044F440147278824202D170
:1026B00004F58014761C761C307866280BD013DC69
:1026C000582877D009DC002875D04528F6D0462850
:1026D000F4D047281AD19DE118E0632835D064284A
:1026E00079D0652812D195E1702873D008DC67286D
:1026F000F1D069286FD06E280DD06F2806D1B5E0D3
:1027000073282CD0752875D0782874D05A4617991C
:1027100090476D1C75E1C4F30250022809D00328CC
:102720000DD0D9F8001004280DD00D6009F104096E
:1027300067E1D9F80010EA17C1E90052F6E7D9F8C5
:1027400000100D80F2E70D70F0E719F8041B8DF80A
:10275000001000208DF80100EA46012003E059F83E
:1027600004AB4FF0FF3061074FF0000102D40DE0E1
:1027700008F101018846B9420FDA8045F8DB1AF802
:1027800008100029F4D108E008F1010188468142CF
:10279000FADB1AF808100029F6D105985B46A0EB81
:1027A000080721463846179A00F094FA284400EBAF
:1027B000080507E04DE029E10DE01AF8010B5A4643
:1027C00017999047B8F10108F7D25B462146384681
:1027D000179A13E142E00A220092C4F302524FF02A
:1027E000000A022A08D059F804CB032A4FEAEC71F8
:1027F0000AD00DE029E02AE009F1070121F00702E3
:10280000F2E802C1914609E00FFA8CFC4FEAEC7144
:10281000042A03D14FFA8CFC4FEAEC71002907DA45
:102820000A460021DCF1000C61EB02012D2202E0DE
:10283000220504D52B228DF80420012203E0E207B3
:1028400001D02022F7E7904659E00A2102E0102249
:102850000DE010214FF0000A00910BE010224FF024
:10286000000A44F004040827009203E008224FF015
:10287000000A0092C4F30252022A05D059F804CB90
:102880000021032A08D009E009F1070121F007021D
:10289000F2E802C1914605E01FFA8CFC042A01D13E
:1028A0000CF0FF0C4FF00008220728D5702806D046
:1028B000009B83F0100353EA0A0305D00EE0402288
:1028C0008DF80420012208E05CEA010206D03022E3
:1028D0008DF804208DF8050002229046009B83F0BD
:1028E000080353EA0A030AD15CEA010201D1620734
:1028F00005D530228DF804204FF001087F1E58289E
:1029000004D034A003900EA802900DE036A0F9E7A1
:1029100053466046009AFDF753FC84460398825C58
:102920000298401E029002705CEA0100F0D1029809
:1029300006A9081A00F1200A600702D524F48034A1
:1029400000E00127574502DDA7EB0A0000E0002068
:1029500000EB0A01009005984144401A0590E003FD
:1029600006D45B462146179A059800F0B3F9054452
:10297000002706E001A85A46C05D179990476D1CD4
:102980007F1C4745F6DBE0030CD55B462146179AD2
:10299000059800F09FF9054404E030205A46179945
:1029A00090476D1C0099481E00900029F5DC08E056
:1029B000029802995A460078491C0291179990474B
:1029C0006D1CBAF10001AAF1010AF1DC65E1000019
:1029D00009280100303132333435363738396162F5
:1029E00063646566000000003031323334353637B9
:1029F00038394142434445460000000000F058F990
:102A00000544761C307800287FF4ECAD19B02846D8
:102A1000BDE8F08F620700D4062709F1070222F013
:102A2000070CFCE80223E14603F000485FEA080CCB
:102A300002D00FF2702C0DE05FEA045C02D50FF2B9
:102A4000682C07E05FEAC47C02D00FF2602C01E042
:102A5000AFF2700C4FF0FF3823F00043CDF850C0B8
:102A600065280CD006DC452809D046281DD047280B
:102A70003DD13DE0662818D067287ED138E000219E
:102A8000112F01DB112000E0781CCDE9000106A91F
:102A90000EA8FFF7DDFCDDE90F010E9A039100217E
:102AA000009207F1010A04914DE04FF000400097B9
:102AB000CDE9011006A90EA8FFF7CAFCDDE90F0257
:102AC00003920E9B11990022DDF80CA00093049252
:102AD00011B9791C00EB010AB7EB0A0004D4C0F16C
:102AE000FF3007F1010A0490AAEB0700019044E0CF
:102AF000012F00DA01270021112F01DD112000E054
:102B00003846CDE9000106A90EA8FFF7A1FCDDE9D2
:102B10000F010E9A0391002104910092BA462107F9
:102B20000CD40399514500DA8A46BAF1010F05DD4C
:102B3000009AAAF10101515C302908D0B84202DAAA
:102B400010F1040F06DA0121CDE9011015E0AAF118
:102B50000101E9E7002805DC049901440491AAEB8E
:102B6000000102E0411C514500DD8A460499401AEB
:102B7000401C01904FF000400290200704D40198BF
:102B8000504501DBCDF8048000208DF84F000298FD
:102B90000DF14F07B0F1004F25D02B200E90029879
:102BA0004FF0020800280CDA404202902D200E90CF
:102BB00007E00A210298FDF758FB3031029007F830
:102BC000011DB8F10001A8F10108F2DC029800280B
:102BD000EFD1791E0E980870307800F0200040F098
:102BE000450007F8020D12A8C01B00F10708149851
:102BF000007800B1012000EB0A01019801EBE071BF
:102C000005984144401A401E0590E00306D45B46F7
:102C10002146179A059800F05DF80544149800784D
:102C200018B15A46179990476D1CE00324D55B46AE
:102C30002146179A059800F04DF805441CE00498C9
:102C4000002807DBDDE90301884203DD0098405CD2
:102C5000179901E0179930205A469047049805F1DA
:102C60000105401C04900198401E019004D12E20C3
:102C70005A46179990476D1CBAF10001AAF1010A52
:102C8000DDDC05E017F8010B5A46179990476D1CDB
:102C9000B8F10001A8F10108F4DC5B462146179A5F
:102CA0000598ABE62D0000002B000000200000007E
:102CB0002DE9F041044600251E461746880404D439
:102CC00005E039462020B0476D1C641EF9D5284622
:102CD000BDE8F0812DE9F041044600251E469046EE
:102CE000C80301D5302700E02027880404D505E07B
:102CF00041463846B0476D1C641EF9D52846BDE8EC
:102D0000F0814A68002A06D00A68531C0B601070D4
:102D10004868401E48607047000000000000000046
:102D200001020304060708090000000000005454D3
:102D3000522052454747455300000000D52D00085A
:102D40000600000048656C6C6F2C20576F726C6435
:102D50002100546869732069732061207761726E65
:102D6000696E67206C6F67207769746820636F6C89
:102D70006F722E0054686973206973206120646546
:102D8000627567206C6F67207769746820636F6C69
:102D90006F722E005468697320697320616E206918
:102DA0006E666F206C6F67207769746820636F6C44
:102DB0006F722E005468697320697320616E2065FC
:102DC00072726F72206C6F67207769746820636F0E
:102DD0006C6F722E00617070002573005465726D07
:102DE000696E616C000D0A002020200025303258E9
:102DF0002000207C20002563001B5B33366D3C7671
:102E000072623E205B25735D3A201B5B33396D0097
:102E10001B5B33346D3C696E663E205B25735D3A07
:102E2000201B5B33396D001B5B33326D3C64626782
:102E30003E205B25735D3A201B5B33396D001B5BC5
:102E400033336D3C7761723E205B25735D3A201B06
:102E50005B33396D001B5B33316D3C6572723E2014
:102E60005B25735D3A201B5B33396D006C6F675FC8
:102E70006261636B656E645F72747400B82E0008E3
:102E8000000000201800000030240008D02E0008A8
:102E900018000020C009000040240008A91D0008F7
:102EA000020000004523000803000000D91E0008AE
:102EB00003000000000000000024F4006C2E000855
:102EC000000600007D1F0008100000000000000048
:040000050800018965
:00000001FF
