:020000040800F2
:1000000010040020AD0100081B0C0008170C0008AC
:10001000190C0008B9020008A10C0008000000003B
:100020000000000000000000000000001F0C00089D
:10003000150C0008000000001D0C0008210C000831
:10004000C7010008C7010008C7010008C701000870
:10005000C7010008C7010008C7010008C701000860
:10006000C7010008C7010008C7010008C701000850
:10007000C7010008C7010008C7010008C701000840
:10008000C7010008C7010008C7010008C701000830
:10009000C7010008C7010008C7010008C701000820
:1000A000C7010008C7010008C7010008C701000810
:1000B000C7010008C7010008C7010008C701000800
:1000C000C7010008C7010008C7010008C7010008F0
:1000D000C7010008C7010008C7010008C7010008E0
:1000E000C7010008C7010008C7010008C7010008D0
:1000F000C7010008C7010008C7010008C7010008C0
:10010000C7010008C7010008C7010008C7010008AF
:10011000C7010008C7010008C7010008C70100089F
:10012000C7010008C7010008C7010008C70100088F
:10013000C7010008C7010008C7010008C70100087F
:10014000C7010008C7010008C7010008C70100086F
:10015000C7010008C7010008C7010008C70100085F
:10016000C7010008C7010008C7010008C70100084F
:10017000C7010008C7010008C7010008000000000F
:10018000C7010008C7010008C7010008C70100082F
:10019000C7010008DFF810D000F07CF800480047E5
:1001A000E10C0008AFF300801004002006488047EF
:1001B00006480047FEE7FEE7FEE7FEE7FEE7FEE74C
:1001C000FEE7FEE7FEE7FEE7250C000895010008C4
:1001D0002DE9F05F0546002092469B46884606467C
:1001E000814640241BE0284641464746224600F00F
:1001F00041F853465A46C01A914110D31146184649
:10020000224600F028F82D1A67EB01084F462246D7
:100210000120002100F01FF817EB00094E41201EBD
:10022000A4F10104DFDC484631462A464346BDE8D6
:10023000F09FD2B201E000F8012B491EFBD27047BB
:100240000022F6E710B513460A4604461946FFF7A2
:10025000F0FF204610BD202A04DB203A00FA02F10C
:10026000002070479140C2F1200320FA03F31943A4
:1002700090407047202A04DB203A21FA02F0002146
:10028000704721FA02F3D040C2F1200291400843A6
:1002900019467047064C074D06E0E06840F0010340
:1002A00094E8070098471034AC42F6D3FFF776FF86
:1002B000100D0008300D0008FEE7000070B5044680
:1002C00000F03EF90546601C02D004480078044462
:1002D00000F036F9401BA042FAD370BD04000020A4
:1002E00010B500F03BF900F049FC00F025FC00F0EF
:1002F00005F8BDE8104000F06CB9000010B586B0FC
:1003000014216846FFF79CFF4020009001200190D7
:1003100002900220064C03906946204600F00AF83D
:1003200000224021204600F005F906B010BD000073
:10033000001002402DE9F84FDFF8BCA10022012592
:1003400003264FF00F090AF1040BAAF1040E00BFB7
:100350000B6805FA02F42340A34270D10F7907F02D
:100360000307012F01D0022F16D187684FEA4208F8
:1003700006FA08FC27EA0C07D1F80CC00CFA08FCB6
:100380004CEA070CC0F808C04768A7430C79C4F3CF
:10039000001494403C4344600C79E443A4070AD021
:1003A000C4684FEA420C06FA0CF7BC438F6807FAA0
:1003B0000CF72743C7600C7904F00304022C12D118
:1003C000D40800EB840CDCF820405707FF0E09FA34
:1003D00007F824EA0804D1F8108008FA07F848EA78
:1003E0000408CCF8208004684FEA420C06FA0CF7A7
:1003F000BC430F7907F0030707FA0CF727430760A0
:100400004C6814F4403F70D03C4C276847F4804758
:100410002760246822F0030704F480440094384CD9
:1004200007EB040CDCF8084897074FEA177809FA3D
:1004300008F7BC43334FB84202D1002724E054E010
:10044000314FB84201D101271EE0304FB84201D1EF
:10045000022719E02E4FB84201D1032714E02D4F97
:10046000B84201D104270FE02B4FB84201D1052734
:100470000AE02A4FB84201D1062705E0284FB842CA
:1004800001D1072700E0082707FA08F72743CCF82F
:100490000878DAF800405746D1F804C09C435FEA78
:1004A000CC2C00D51C433C60DBF800405F46D1F803
:1004B00004C09C435FEA8C2C00D51C433C60DEF8F2
:1004C00000407746D1F804C09C435FEA8C3C00D5DD
:1004D0001C433C60084F083F3C68D1F804C09C4373
:1004E0005FEACC3C00D51C433C60521C102AFFF450
:1004F0002FAFBDE8F88F0000083C014044380240AF
:1005000000300140000002400004024000080240A8
:10051000000C02400010024000140240001802408B
:10052000001C0240426921EA02030A4043EA0241F8
:10053000816170470AB1816170470904FBE70000DF
:10054000014880687047000004000020024881686C
:100550000278114481607047040000200B4810B5F8
:10056000016841F400710160016841F4806101603B
:10057000016841F480710160032000F04DF80F2004
:1005800000F006F800F024F8002010BD003C024006
:1005900070B50D4D04464FF47A712878B1FBF0F038
:1005A0000A490968B1FBF0F000F0D4FA48B9102C00
:1005B00007D200222146501E00F00EF800206C6089
:1005C00070BD012070BD000004000020000000206C
:1005D0007047032000F020B8F0B40E4B1B680C46A7
:1005E000C3F30223C3F10705042D00D90425191D07
:1005F000072901D2002300E0DB1E012606FA05F1DF
:10060000491E214099409E40761E16403143F0BC61
:1006100000F047BB0CED00E0064900F00702086857
:100620004FF6FF03184040EA0220034A10430860D7
:10063000704700000CED00E00000FA052DE9F047DE
:100640000E46050063D0DFF81081D8F80000F7B23D
:1006500000F00700B04207D288F80070D8F8000018
:1006600000F00700B04252D128683C4C810712D5F7
:10067000400703D5206840F4E05020602878000748
:1006800003D5206840F4604020602068A96820F00D
:10069000F000084320602878C0072BD02F496868F5
:1006A0000839012810D00968022810D089070029CC
:1006B0002DDA216821F0030101432160FFF740FF9B
:1006C000814641F2883A0EE009688903EFE7890123
:1006D000EDE700BFFFF734FFA0EB0901514502D958
:1006E0000320BDE8F0872068696800F00C00B0EBDB
:1006F000810FEFD1D8F80010404601F00701B14258
:1007000007D90770006800F00700B04201D001204F
:10071000E7E72878400705D52068E96820F4E0502D
:10072000084320602878000706D52068296920F44E
:10073000604040EAC100206000F018F82168084AD3
:10074000C1F30311515CC8400649086006480068BF
:10075000FFF71EFF0020C4E7003C024008380240BB
:10076000000D00080000002008000020154810B50A
:10077000006810F00C02144813D04110042A0FD066
:10078000082A0ED10F4C241F2268236802F03F0272
:100790005B0207D52068C0F38810A0FB010106E0CA
:1007A000084610BD2168C1F38811A1FB0001002398
:1007B000FFF70EFD2168C1F30141491C4900B0FB60
:1007C000F1F010BD083802400024F4002DE9F84F84
:1007D00004006ED02078DFF84C93C007A9F104051F
:1007E0004AD009F104000168C1F38101012908D050
:1007F0000068C0F3810002280AD1D9F80000400245
:1008000006D52868800337D560680028E1D033E03A
:100810006068B0F5803F10D0B0F5A02F286810D0E8
:1008200020F480302860286820F4802028606068E8
:10083000A8B1FFF785FE06460DE0286840F4803039
:10084000F4E740F480202860F7E700BFFFF778FE68
:10085000801B642873D828688003F7D50CE0FFF765
:100860006FFE064605E000BFFFF76AFE801B6428A6
:10087000F0D828688003F7D42078DFF8AC828007AE
:100880004FF0000A3ED5A748001D016811F00C0F7B
:1008900008D00068C0F3810002280BD1D9F800000D
:1008A000400207D42868800716D5E068012800D1E7
:1008B00012E033E1E068B8B10120C8F80000FFF7AA
:1008C0003FFE064605E000BFFFF73AFE801B022808
:1008D000C0D828688007F7D52868216920F0F8007B
:1008E00040EAC10028600DE0C8F800A0FFF728FE2C
:1008F000064604E0FFF724FE801B02281FD8286864
:100900008007F7D42078000722D5864F8748616991
:10091000703771B101210160FFF712FE064604E055
:10092000FFF70EFE801B022809D838688007F7D52C
:100930000EE0C0F800A0FFF703FE064605E082E0E7
:10094000FFF7FEFD801B02287DD838688007F7D4AA
:100950002078400768D5DFF8CCB100270BF13C0BBD
:10096000DBF80000C0000BD4DBF8001041F0805130
:10097000CBF80010DBF80000012700F08050009059
:100980006B4E3068C00510D4306840F48070306021
:10099000FFF7D6FD009005E0FFF7D2FD0099401A61
:1009A000022850D83068C005F6D55E4EA0686C3677
:1009B00001280FD00528306810D020F001003060E9
:1009C000306820F004003060A068B8B1FFF7B8FDCF
:1009D00000900FE0306840F00100F4E740F00400C0
:1009E0003060F7E7FFF7ACFD0099411A41F288301B
:1009F000814266D830688007F4D50EE0FFF7A0FD8D
:100A0000009007E0FFF79CFD0099411A41F2883001
:100A1000814256D830688007F4D42FB1DBF800103B
:100A200021F08051CBF80010A069C8B33D49091DE1
:100A30000968C1F3810102294AD00228504607D033
:100A4000C8F8600000E03CE0FFF77AFD04463BE0B8
:100A50004746C8F86000FFF773FD064605E000BF93
:100A6000FFF76EFD801B02282BD828688001F7D481
:100A7000D4E907010843A16A2E4A490802EB014163
:100A8000626A41EA8211084394F82C1040EA01613D
:100A9000C9F8001001203866FFF752FD044606E051
:100AA0003EE000BFFFF74CFD001B022809D8286874
:100AB0008001F7D534E000BFFFF742FD001B02289C
:100AC00002D90320BDE8F88F28688001F4D427E01C
:100AD0000128F7D0D9F80000E26900F480019142C2
:100AE0001CD1226A00F03F01914217D147F6C07134
:100AF000626A0140B1EB821F10D1A26A4FF0FF334E
:100B000000F4403103EB5202B1EB024F06D194F8EE
:100B10002C1000F07060B0EB016F01D00120D1E724
:100B20000020CFE70438024000004742800E4742D1
:100B3000007000400000FFFF054808B5016841F063
:100B400010010160006800F01000009008BD000076
:100B50003038024010B5401EB0F1807F01D3012033
:100B600010BD4FF0E02460610F21601700F099F88C
:100B70000020A06107202061002010BD30B593B097
:100B800014210CA8FFF75CFB30216846FFF758FBE7
:100B90001E480025016841F080510160006800F0A6
:100BA000805011901A48016841F48041016000684A
:100BB000022400F480401190012000900004019074
:100BC0008001CDE90640082008904FF4A870CDE9D7
:100BD000090407200B906846FFF7F8FD08B172B6CC
:100BE000FEE70CA90F2081E831004FF4A0500F90D0
:100BF0004FF48050109005210CA8FFF71FFD00282E
:100C000001D072B6FEE713B030BD0000403802409C
:100C1000007000407047FEE7FEE77047704770477E
:100C2000FFF794BC72B600204FF0E02108614861E4
:100C300088610146431E8A0002F1E022C2F8803139
:100C4000C2F88032491CC9B20829F4D310490A6895
:100C500042F470020A600F490A6842F001020A6019
:100C60000C4A083210600A680B4B1A400A600B1DD0
:100C70000A4A1A600A6822F480220A6005490C3187
:100C80000860034958068039086062B67047000062
:100C900088ED00E000380240FFFFF6FE103000242F
:100CA000FEE70907090E002804DB00F1E02080F8C8
:100CB0000014704700F00F0000F1E02080F8141DD0
:100CC000704702E008C8121F08C1002AFAD1704715
:100CD0007047002001E001C1121F002AFBD17047BC
:100CE000FFF7FEFA054C4FF4FA7540212046FFF756
:100CF00019FC2846FFF7E2FAF7E70000001002406F
:100D000000000000000000000102030406070809BB
:100D1000300D00080000002010000000C20C000888
:100D2000400D00081000002000040000D20C000854
:100D30000024F4000100000010000000000000008A
:040000050800019559
:00000001FF
