:020000040800F2
:1000000010040020AD0100088D0E0008850E0008C8
:10001000890E0008B9020008350F00080000000032
:10002000000000000000000000000000910E000829
:100030007D0E0008000000008F0E0008930E0008DF
:10004000C7010008C7010008C7010008C701000870
:10005000C7010008C7010008C7010008C701000860
:10006000C7010008C7010008C7010008C701000850
:10007000C7010008C7010008C7010008C701000840
:10008000C7010008C7010008C7010008C701000830
:10009000C7010008C7010008C7010008C701000820
:1000A000C7010008C7010008C7010008C701000810
:1000B000C7010008C7010008C7010008C701000800
:1000C000C7010008C7010008C7010008C7010008F0
:1000D000C7010008C7010008C7010008C7010008E0
:1000E000C7010008C7010008C7010008C7010008D0
:1000F000C7010008C7010008C7010008C7010008C0
:10010000C7010008C7010008C7010008C7010008AF
:10011000C7010008C7010008C7010008C70100089F
:10012000C7010008C7010008C7010008C70100088F
:10013000C7010008C7010008C7010008C70100087F
:10014000C7010008C7010008C7010008C70100086F
:10015000C7010008C7010008C7010008C70100085F
:10016000C7010008C7010008C7010008C70100084F
:10017000C7010008C7010008C7010008000000000F
:10018000C7010008C7010008C7010008C70100082F
:10019000C7010008DFF810D000F07CF800480047E5
:1001A000910F0008AFF3008010040020064880473C
:1001B00006480047FEE7FEE7FEE7FEE7FEE7FEE74C
:1001C000FEE7FEE7FEE7FEE79D0E0008950100084A
:1001D0002DE9F05F0546002092469B46884606467C
:1001E000814640241BE0284641464746224600F00F
:1001F00041F853465A46C01A914110D31146184649
:10020000224600F028F82D1A67EB01084F462246D7
:100210000120002100F01FF817EB00094E41201EBD
:10022000A4F10104DFDC484631462A464346BDE8D6
:10023000F09FD2B201E000F8012B491EFBD27047BB
:100240000022F6E710B513460A4604461946FFF7A2
:10025000F0FF204610BD202A04DB203A00FA02F10C
:10026000002070479140C2F1200320FA03F31943A4
:1002700090407047202A04DB203A21FA02F0002146
:10028000704721FA02F3D040C2F1200291400843A6
:1002900019467047064C074D06E0E06840F0010340
:1002A00094E8070098471034AC42F6D3FFF776FF86
:1002B000C40F0008E40F000800BFFEE770B5044655
:1002C00000F040F906462546681C10B10448007845
:1002D000054400BF00F036F9801BA842FAD370BD78
:1002E0000C00002010B500F03FF900F06DFD00F0AB
:1002F0003DFD00F003F800F07CF910BD00B585B0BD
:1003000014216846FFF79CFF4020009001200190D7
:100310000290022003906946044800F009F8002288
:100320004021024800F008F905B000BD001002406D
:10033000F8B502460B460025002400200021D6E037
:10034000012606FA01F51E6806EA0504AC4274D1DE
:100350001E7906F00306012E04D01E7906F003066E
:10036000022E13D190684F000326BE40B0434F00C9
:10037000DE68BE4030439060506801268E40B04336
:100380001E79C6F300168E40304350601E7906F089
:100390000306032E09D0D0684F000326BE40B043A9
:1003A0004F009E68BE403043D0601E7906F00306C1
:1003B000022E13D1CF0802F1200656F827004E076F
:1003C000F70E0F26BE40B0434F07FF0E1E69BE401A
:1003D0003043CF0802F1200646F8270010684F008E
:1003E0000326BE40B0431E7906F003064F00BE4010
:1003F000304310605E6806F44036002E76D000BFB1
:10040000002600963C4E366846F480463A4F3E60E1
:100410003E46366806F48046009600BF00BF374E61
:100420008F0856F827008E07370F0F26BE40B043BF
:10043000334EB24202D1002624E057E0314EB242A0
:1004400001D101261EE0304EB24201D1022619E050
:100450002E4EB24201D1032614E02D4EB24201D1FC
:1004600004260FE02B4EB24201D105260AE02A4EA7
:10047000B24201D1062605E0284EB24201D107263C
:1004800000E008268F073F0FBE4030431B4E8F0809
:1004900046F82700224E3068A0435E6806F48016B6
:1004A00006B120431E4E3060361D3068A0435E68A2
:1004B00006F4001606B12043194E361D3060184E62
:1004C000361F3068A0435E6806F4003606B120434C
:1004D000134E361F3060361F3068A0435E6806F446
:1004E000803606B120430E4E083E3060491C10296C
:1004F000FFF426AFF8BD0000443802400838014040
:10050000000002400004024000080240000C0240CB
:10051000001002400014024000180240001C02407B
:10052000083C014010B5426921EA020302EA0104D5
:1005300043EA0443836110BD0AB1816101E00B0409
:100540008361704701480068704700000400002084
:100550000348006803490978084401490860704766
:10056000040000200C00002010B50D48006840F485
:1005700000700B4908600846006840F4806008601D
:100580000846006840F480700860032000F074F8AA
:100590000F2000F007F800F02BF8002010BD00003D
:1005A000003C024070B504460E4800784FF47A7162
:1005B000B1FBF0F00C490968B1FBF0F5284600F0FA
:1005C000E9FB08B1012070BD102C07D200222146A2
:1005D000501E00F013F80548046001E00120F2E726
:1005E0000020F0E70C0000200000002008000020A0
:1005F000704710B5032000F03FF810BD2DE9F05F03
:1006000080460D461646002700F096FC0746394600
:100610002A46334601F00700C0F1070ABAF1040F79
:1006200002D94FF0040A01E0C0F1070AD14600F1F7
:10063000040ABAF1070F02D24FF0000A01E0A0F15C
:10064000030AD4464FF0010A0AFA09FAAAF1010A8C
:100650000AEA020A0AFA0CFA4FF0010B0BFA0CFB39
:10066000ABF1010B0BEA030B4AEA0B0421464046AF
:1006700000F06AFCBDE8F09F00BF00F00702064BE7
:1006800019684FF6FF031940044B0B4343EA02215C
:10069000014B196000BF70470CED00E00000FA0547
:1006A00070B504460D460CB9012070BD574800686E
:1006B00000F00700A84209D254490D7008460068AE
:1006C00000F00700A84201D00120EEE7207800F0FA
:1006D000020002281DD1207800F00400042805D172
:1006E0004B48006840F4E05049490860207800F029
:1006F0000800082805D14648006840F46040444995
:1007000008604348006820F0F000A16808434049B1
:100710000860207800F0010090B36068012807D1DC
:100720003B4808380068C0F34040A0B90120BCE74E
:100730006068022807D1364808380068C0F3406076
:1007400048B90120B1E7324808380068C0F34000DA
:1007500008B90120A9E72E48006820F0030061686D
:1007600008432B490860FFF7EDFE064609E0FFF756
:10077000E9FE801B41F28831884202D9032094E7C8
:1007800007E02348006800F00C006168B0EB810FBF
:10079000EDD11E48006800F00700A84209D91B49A6
:1007A0000D700846006800F00700A84201D0012043
:1007B0007BE7207800F00400042807D11448006883
:1007C00020F4E050E168084311490860207800F007
:1007D0000800082808D10E48006820F4604021690C
:1007E00040EAC1000A49086000F01AF8084909689F
:1007F000C1F30311074A515CC84007490860074824
:100800000068FFF7CFFE00204FE70000003C0240E9
:1008100008380240AC0F000800000020080000204B
:100820002DE9F047002400250026A1462548006850
:1008300000F00C0020B1042805D008283AD105E0CA
:10084000DFF8849039E0DFF8849036E01D48001F1F
:10085000006800F03F041B48001F006800F480009F
:1008600078B11A481749091F0968C1F38811A0FB1C
:1008700001700146224600233846FFF7A9FC0546D1
:100880000EE011480F49091F0968C1F38811A0FB48
:1008900001700146224600233846FFF799FC0546C1
:1008A0000848001F0068C0F30140401C4600B5FB2B
:1008B000F6F902E0DFF8109000BF00BF4846BDE83F
:1008C000F0870000083802400024F40000127A008B
:1008D000F8B504460CB90120F8BD207800F00100FD
:1008E000002874D0F948006800F00C0004280DD0EE
:1008F000F648006800F00C00082813D1F348001FE8
:10090000006800F48000B0F5800F0BD1EF48083884
:100910000068C0F34040002859D06068002856D1D4
:100920000120D9E700BF6068B0F5803F08D1E748F3
:100930000838006840F48030E449083908601EE057
:100940006068B0F5A02F0DD1E0480838006840F489
:100950008020DE49083908600846006840F480308D
:1009600008600CE0D9480838006820F48030D74986
:10097000083908600846006820F48020086000BF3D
:10098000606890B1FFF7DEFD054606E0FFF7DAFD8F
:10099000401B642801D903209EE7CC480838006832
:1009A000C0F340400028F1D011E0FFF7CBFD054631
:1009B00006E0FFF7C7FD401B642801D903208BE741
:1009C000C24808380068C0F340400028F1D12078C0
:1009D00000F0020002285FD1BC48006800F00C0063
:1009E00058B1BA48006800F00C0008281CD1B7487C
:1009F000001F006800F48000B0B9B44808380068EF
:100A0000C0F3400020B1E068012801D0012063E775
:100A1000AE480838006820F0F800216940EAC100BB
:100A2000AA490839086037E0E06800B30120A84906
:100A30000860FFF787FD054606E0FFF783FD401BD2
:100A4000022801D9032047E7A04808380068C0F30E
:100A500040000028F1D09D480838006820F0F800D8
:100A6000216940EAC10099490839086014E0002072
:100A700097490860FFF766FD054606E0FFF762FD4F
:100A8000401B022801D9032026E790480838006857
:100A9000C0F340000028F1D1207800F008000828B9
:100AA0002CD16069A8B101208A490860FFF74AFD8E
:100AB000054606E0FFF746FD401B022801D903204A
:100AC0000AE782486C300068C0F340000028F1D08B
:100AD00014E000207F490860FFF734FD054606E07A
:100AE000FFF730FD401B022801D90320F4E67748C8
:100AF0006C300068C0F340000028F1D1207800F08D
:100B00000400042870D1002770483830006800F0D5
:100B1000805090B900BF002000906C4838300068C9
:100B200040F080506949383108600846006800F09C
:100B30008050009000BF00BF01276748006800F4A4
:100B40008070B0B96448006840F480706249086001
:100B5000FFF7F8FC054606E0FFF7F4FC401B02280F
:100B600001D90320B8E65C48006800F480700028D2
:100B7000F2D000BFA068012808D15448683000684E
:100B800040F001005149683108601DE0A068052867
:100B90000DD14E486830006840F004004B49683180
:100BA00008600846006840F0010008600CE0474813
:100BB0006830006820F00100444968310860084648
:100BC000006820F00400086000BFA068A8B1FFF72B
:100BD000B9FC054609E0FFF7B5FC401B41F288313E
:100BE000884202D9032077E626E03848683000685A
:100BF000C0F340000028EED013E0FFF7A3FC054649
:100C000008E0FFF79FFC401B41F28831884201D980
:100C1000032061E62D4868300068C0F340000028DA
:100C2000EFD1012F07D129483830006820F08050DB
:100C300026493831086000BFA069002845D0234804
:100C4000006800F00C0008285DD0A069022845D19A
:100C500000201F490866FFF775FC054606E0FFF710
:100C600071FC401B022801D9032035E617480838DB
:100C70000068C0F340600028F1D1D4E907010843BF
:100C8000616A40EA81110122A06AC2EB500041EA88
:100C900000412C20005D41EA00600C49091F0860FA
:100CA00001200B490866FFF74DFC054606E0FFF7FB
:100CB00049FC401B022801D903200DE603480838EF
:100CC0000068C0F340600028F1D049E008380240D5
:100CD00000004742800E474200700040002021493A
:100CE0000866FFF72FFC054606E0FFF72BFC401BCC
:100CF000022801D90320EFE51B480068C0F34060DB
:100D00000028F2D12CE0A069012800D1E4E51648C2
:100D1000001D0668A069012820D006F48001E06962
:100D200081421BD106F03F01206A814216D147F66D
:100D3000C0703040616AB0EB811F0FD106F44031C2
:100D40000122A06AC2EB5000B1EB004F06D106F0C1
:100D500070612C20005DB1EB006F01D00120BBE57C
:100D60000020B9E5000047420038024008B500BF46
:100D7000002000900648006840F010000449086018
:100D80000846006800F01000009000BF00BF08BDDA
:100D90003038024070B504462546681EB0F1807FA9
:100DA00001D301200FE0681E4FF0E02148610F21C0
:100DB0004FF0FF3000F0C8F800204FF0E0218861CC
:100DC00007200861002070BD00B593B014210EA863
:100DD000FFF736FA302102A8FFF732FA00BF0020F1
:100DE00001902448006840F080502249086008467D
:100DF000006800F08050019000BF00BF00BF0020DD
:100E000001901D48006840F480401B490860084676
:100E1000006800F48040019000BF00BF01200290F4
:100E200000040390022008904105099108210A91CD
:100E30004FF4A8710B9102210C9107210D9102A88A
:100E4000FFF746FD08B100F01AF80F200E900220BF
:100E50000F90002010904FF4A05011904FF480504C
:100E6000129005210EA8FFF71BFC08B100F007F84F
:100E700013B000BD4038024000700040704772B6A9
:100E800000BFFEE700BFFEE700BFFEE77047704708
:100E9000704710B5FFF75CFB10BD000072B6002173
:100EA0004FF0E022116151619161002009E04FF0A3
:100EB000FF321A4941F82020194941F82020411CED
:100EC000C8B20828F3D31749096841F47001154ADC
:100ED00011601549096841F00101134A11600021B0
:100EE000114A0832116010490968104A11400E4A2F
:100EF00011600F49121D1160111F096821F4802132
:100F0000121F11600021084A0C3211604FF000617D
:100F1000044A803A116062B67047000080E100E048
:100F200080E200E088ED00E000380240FFFFF6FEBE
:100F30001030002400BFFEE702480068C0F3022022
:100F4000704700000CED00E010B5002804DB0A0734
:100F5000130E054A135406E00A07140E034A00F064
:100F60000F031B1FD45410BD00E400E018ED00E097
:100F700002E008C8121F08C1002AFAD17047704762
:100F8000002001E001C1121F002AFBD170470000C0
:100F9000FFF7A8F906E040210348FFF7C3FAC8208D
:100FA000FFF78CF9F7E70000001002400000000096
:100FB0000000000001020304060708090000000009
:100FC00001020304E40F00080000002010000000EC
:100FD000700F0008F40F000810000020000400004B
:100FE000800F00080024F400000000001000000042
:040FF00001000000FC
:040000050800019559
:00000001FF
